{
    "abi": [
        {
            "type": "constructor",
            "inputs": [
                {
                    "name": "_factory",
                    "type": "address",
                    "internalType": "address"
                },
                {
                    "name": "_WNAD",
                    "type": "address",
                    "internalType": "address"
                }
            ],
            "stateMutability": "nonpayable"
        },
        {
            "type": "receive",
            "stateMutability": "payable"
        },
        {
            "type": "function",
            "name": "WNAD",
            "inputs": [],
            "outputs": [
                {
                    "name": "",
                    "type": "address",
                    "internalType": "address"
                }
            ],
            "stateMutability": "view"
        },
        {
            "type": "function",
            "name": "buy",
            "inputs": [
                {
                    "name": "amountIn",
                    "type": "uint256",
                    "internalType": "uint256"
                },
                {
                    "name": "fee",
                    "type": "uint256",
                    "internalType": "uint256"
                },
                {
                    "name": "token",
                    "type": "address",
                    "internalType": "address"
                },
                {
                    "name": "to",
                    "type": "address",
                    "internalType": "address"
                },
                {
                    "name": "deadline",
                    "type": "uint256",
                    "internalType": "uint256"
                }
            ],
            "outputs": [],
            "stateMutability": "payable"
        },
        {
            "type": "function",
            "name": "buyAmountOutMin",
            "inputs": [
                {
                    "name": "amountIn",
                    "type": "uint256",
                    "internalType": "uint256"
                },
                {
                    "name": "amountOutMin",
                    "type": "uint256",
                    "internalType": "uint256"
                },
                {
                    "name": "fee",
                    "type": "uint256",
                    "internalType": "uint256"
                },
                {
                    "name": "token",
                    "type": "address",
                    "internalType": "address"
                },
                {
                    "name": "to",
                    "type": "address",
                    "internalType": "address"
                },
                {
                    "name": "deadline",
                    "type": "uint256",
                    "internalType": "uint256"
                }
            ],
            "outputs": [],
            "stateMutability": "payable"
        },
        {
            "type": "function",
            "name": "buyExactAmountOut",
            "inputs": [
                {
                    "name": "amountOut",
                    "type": "uint256",
                    "internalType": "uint256"
                },
                {
                    "name": "amountInMax",
                    "type": "uint256",
                    "internalType": "uint256"
                },
                {
                    "name": "token",
                    "type": "address",
                    "internalType": "address"
                },
                {
                    "name": "to",
                    "type": "address",
                    "internalType": "address"
                },
                {
                    "name": "deadline",
                    "type": "uint256",
                    "internalType": "uint256"
                }
            ],
            "outputs": [],
            "stateMutability": "payable"
        },
        {
            "type": "function",
            "name": "buyExactAmountOutWNad",
            "inputs": [
                {
                    "name": "amountOut",
                    "type": "uint256",
                    "internalType": "uint256"
                },
                {
                    "name": "amountInMax",
                    "type": "uint256",
                    "internalType": "uint256"
                },
                {
                    "name": "token",
                    "type": "address",
                    "internalType": "address"
                },
                {
                    "name": "to",
                    "type": "address",
                    "internalType": "address"
                },
                {
                    "name": "deadline",
                    "type": "uint256",
                    "internalType": "uint256"
                }
            ],
            "outputs": [],
            "stateMutability": "nonpayable"
        },
        {
            "type": "function",
            "name": "buyExactAmountOutWNadPermit",
            "inputs": [
                {
                    "name": "amountOut",
                    "type": "uint256",
                    "internalType": "uint256"
                },
                {
                    "name": "amountInMax",
                    "type": "uint256",
                    "internalType": "uint256"
                },
                {
                    "name": "token",
                    "type": "address",
                    "internalType": "address"
                },
                {
                    "name": "from",
                    "type": "address",
                    "internalType": "address"
                },
                {
                    "name": "to",
                    "type": "address",
                    "internalType": "address"
                },
                {
                    "name": "deadline",
                    "type": "uint256",
                    "internalType": "uint256"
                },
                {
                    "name": "v",
                    "type": "uint8",
                    "internalType": "uint8"
                },
                {
                    "name": "r",
                    "type": "bytes32",
                    "internalType": "bytes32"
                },
                {
                    "name": "s",
                    "type": "bytes32",
                    "internalType": "bytes32"
                }
            ],
            "outputs": [],
            "stateMutability": "nonpayable"
        },
        {
            "type": "function",
            "name": "buyWNad",
            "inputs": [
                {
                    "name": "amountIn",
                    "type": "uint256",
                    "internalType": "uint256"
                },
                {
                    "name": "fee",
                    "type": "uint256",
                    "internalType": "uint256"
                },
                {
                    "name": "token",
                    "type": "address",
                    "internalType": "address"
                },
                {
                    "name": "to",
                    "type": "address",
                    "internalType": "address"
                },
                {
                    "name": "deadline",
                    "type": "uint256",
                    "internalType": "uint256"
                }
            ],
            "outputs": [],
            "stateMutability": "nonpayable"
        },
        {
            "type": "function",
            "name": "buyWNadAmountOutMin",
            "inputs": [
                {
                    "name": "amountIn",
                    "type": "uint256",
                    "internalType": "uint256"
                },
                {
                    "name": "amountOutMin",
                    "type": "uint256",
                    "internalType": "uint256"
                },
                {
                    "name": "fee",
                    "type": "uint256",
                    "internalType": "uint256"
                },
                {
                    "name": "token",
                    "type": "address",
                    "internalType": "address"
                },
                {
                    "name": "to",
                    "type": "address",
                    "internalType": "address"
                },
                {
                    "name": "deadline",
                    "type": "uint256",
                    "internalType": "uint256"
                }
            ],
            "outputs": [],
            "stateMutability": "nonpayable"
        },
        {
            "type": "function",
            "name": "buyWNadAmountOutMinPermit",
            "inputs": [
                {
                    "name": "amountIn",
                    "type": "uint256",
                    "internalType": "uint256"
                },
                {
                    "name": "amountOutMin",
                    "type": "uint256",
                    "internalType": "uint256"
                },
                {
                    "name": "fee",
                    "type": "uint256",
                    "internalType": "uint256"
                },
                {
                    "name": "token",
                    "type": "address",
                    "internalType": "address"
                },
                {
                    "name": "from",
                    "type": "address",
                    "internalType": "address"
                },
                {
                    "name": "to",
                    "type": "address",
                    "internalType": "address"
                },
                {
                    "name": "deadline",
                    "type": "uint256",
                    "internalType": "uint256"
                },
                {
                    "name": "v",
                    "type": "uint8",
                    "internalType": "uint8"
                },
                {
                    "name": "r",
                    "type": "bytes32",
                    "internalType": "bytes32"
                },
                {
                    "name": "s",
                    "type": "bytes32",
                    "internalType": "bytes32"
                }
            ],
            "outputs": [],
            "stateMutability": "nonpayable"
        },
        {
            "type": "function",
            "name": "buyWNadWithPermit",
            "inputs": [
                {
                    "name": "amountIn",
                    "type": "uint256",
                    "internalType": "uint256"
                },
                {
                    "name": "fee",
                    "type": "uint256",
                    "internalType": "uint256"
                },
                {
                    "name": "token",
                    "type": "address",
                    "internalType": "address"
                },
                {
                    "name": "from",
                    "type": "address",
                    "internalType": "address"
                },
                {
                    "name": "to",
                    "type": "address",
                    "internalType": "address"
                },
                {
                    "name": "deadline",
                    "type": "uint256",
                    "internalType": "uint256"
                },
                {
                    "name": "v",
                    "type": "uint8",
                    "internalType": "uint8"
                },
                {
                    "name": "r",
                    "type": "bytes32",
                    "internalType": "bytes32"
                },
                {
                    "name": "s",
                    "type": "bytes32",
                    "internalType": "bytes32"
                }
            ],
            "outputs": [],
            "stateMutability": "nonpayable"
        },
        {
            "type": "function",
            "name": "createCurve",
            "inputs": [
                {
                    "name": "name",
                    "type": "string",
                    "internalType": "string"
                },
                {
                    "name": "symbol",
                    "type": "string",
                    "internalType": "string"
                },
                {
                    "name": "tokenURI",
                    "type": "string",
                    "internalType": "string"
                },
                {
                    "name": "amountIn",
                    "type": "uint256",
                    "internalType": "uint256"
                },
                {
                    "name": "fee",
                    "type": "uint256",
                    "internalType": "uint256"
                },
                {
                    "name": "deployFee",
                    "type": "uint256",
                    "internalType": "uint256"
                }
            ],
            "outputs": [
                {
                    "name": "curve",
                    "type": "address",
                    "internalType": "address"
                },
                {
                    "name": "token",
                    "type": "address",
                    "internalType": "address"
                }
            ],
            "stateMutability": "payable"
        },
        {
            "type": "function",
            "name": "factory",
            "inputs": [],
            "outputs": [
                {
                    "name": "",
                    "type": "address",
                    "internalType": "address"
                }
            ],
            "stateMutability": "view"
        },
        {
            "type": "function",
            "name": "getAmountIn",
            "inputs": [
                {
                    "name": "amountOut",
                    "type": "uint256",
                    "internalType": "uint256"
                },
                {
                    "name": "k",
                    "type": "uint256",
                    "internalType": "uint256"
                },
                {
                    "name": "reserveIn",
                    "type": "uint256",
                    "internalType": "uint256"
                },
                {
                    "name": "reserveOut",
                    "type": "uint256",
                    "internalType": "uint256"
                }
            ],
            "outputs": [
                {
                    "name": "amountIn",
                    "type": "uint256",
                    "internalType": "uint256"
                }
            ],
            "stateMutability": "pure"
        },
        {
            "type": "function",
            "name": "getAmountOut",
            "inputs": [
                {
                    "name": "amountIn",
                    "type": "uint256",
                    "internalType": "uint256"
                },
                {
                    "name": "k",
                    "type": "uint256",
                    "internalType": "uint256"
                },
                {
                    "name": "reserveIn",
                    "type": "uint256",
                    "internalType": "uint256"
                },
                {
                    "name": "reserveOut",
                    "type": "uint256",
                    "internalType": "uint256"
                }
            ],
            "outputs": [
                {
                    "name": "amountOut",
                    "type": "uint256",
                    "internalType": "uint256"
                }
            ],
            "stateMutability": "pure"
        },
        {
            "type": "function",
            "name": "getCurveData",
            "inputs": [
                {
                    "name": "_factory",
                    "type": "address",
                    "internalType": "address"
                },
                {
                    "name": "token",
                    "type": "address",
                    "internalType": "address"
                }
            ],
            "outputs": [
                {
                    "name": "curve",
                    "type": "address",
                    "internalType": "address"
                },
                {
                    "name": "virtualNad",
                    "type": "uint256",
                    "internalType": "uint256"
                },
                {
                    "name": "virtualToken",
                    "type": "uint256",
                    "internalType": "uint256"
                },
                {
                    "name": "k",
                    "type": "uint256",
                    "internalType": "uint256"
                }
            ],
            "stateMutability": "view"
        },
        {
            "type": "function",
            "name": "getCurveData",
            "inputs": [
                {
                    "name": "curve",
                    "type": "address",
                    "internalType": "address"
                }
            ],
            "outputs": [
                {
                    "name": "virtualNad",
                    "type": "uint256",
                    "internalType": "uint256"
                },
                {
                    "name": "virtualToken",
                    "type": "uint256",
                    "internalType": "uint256"
                },
                {
                    "name": "k",
                    "type": "uint256",
                    "internalType": "uint256"
                }
            ],
            "stateMutability": "view"
        },
        {
            "type": "function",
            "name": "sell",
            "inputs": [
                {
                    "name": "amountIn",
                    "type": "uint256",
                    "internalType": "uint256"
                },
                {
                    "name": "token",
                    "type": "address",
                    "internalType": "address"
                },
                {
                    "name": "to",
                    "type": "address",
                    "internalType": "address"
                },
                {
                    "name": "deadline",
                    "type": "uint256",
                    "internalType": "uint256"
                }
            ],
            "outputs": [],
            "stateMutability": "nonpayable"
        },
        {
            "type": "function",
            "name": "sellAmountOutMin",
            "inputs": [
                {
                    "name": "amountIn",
                    "type": "uint256",
                    "internalType": "uint256"
                },
                {
                    "name": "amountOutMin",
                    "type": "uint256",
                    "internalType": "uint256"
                },
                {
                    "name": "token",
                    "type": "address",
                    "internalType": "address"
                },
                {
                    "name": "to",
                    "type": "address",
                    "internalType": "address"
                },
                {
                    "name": "deadline",
                    "type": "uint256",
                    "internalType": "uint256"
                }
            ],
            "outputs": [],
            "stateMutability": "nonpayable"
        },
        {
            "type": "function",
            "name": "sellAmountOutMinWithPermit",
            "inputs": [
                {
                    "name": "amountIn",
                    "type": "uint256",
                    "internalType": "uint256"
                },
                {
                    "name": "amountOutMin",
                    "type": "uint256",
                    "internalType": "uint256"
                },
                {
                    "name": "token",
                    "type": "address",
                    "internalType": "address"
                },
                {
                    "name": "from",
                    "type": "address",
                    "internalType": "address"
                },
                {
                    "name": "to",
                    "type": "address",
                    "internalType": "address"
                },
                {
                    "name": "deadline",
                    "type": "uint256",
                    "internalType": "uint256"
                },
                {
                    "name": "v",
                    "type": "uint8",
                    "internalType": "uint8"
                },
                {
                    "name": "r",
                    "type": "bytes32",
                    "internalType": "bytes32"
                },
                {
                    "name": "s",
                    "type": "bytes32",
                    "internalType": "bytes32"
                }
            ],
            "outputs": [],
            "stateMutability": "nonpayable"
        },
        {
            "type": "function",
            "name": "sellExactAmountOut",
            "inputs": [
                {
                    "name": "amountOut",
                    "type": "uint256",
                    "internalType": "uint256"
                },
                {
                    "name": "amountInMax",
                    "type": "uint256",
                    "internalType": "uint256"
                },
                {
                    "name": "token",
                    "type": "address",
                    "internalType": "address"
                },
                {
                    "name": "to",
                    "type": "address",
                    "internalType": "address"
                },
                {
                    "name": "deadline",
                    "type": "uint256",
                    "internalType": "uint256"
                }
            ],
            "outputs": [],
            "stateMutability": "payable"
        },
        {
            "type": "function",
            "name": "sellExactAmountOutwithPermit",
            "inputs": [
                {
                    "name": "amountOut",
                    "type": "uint256",
                    "internalType": "uint256"
                },
                {
                    "name": "amountInMax",
                    "type": "uint256",
                    "internalType": "uint256"
                },
                {
                    "name": "token",
                    "type": "address",
                    "internalType": "address"
                },
                {
                    "name": "from",
                    "type": "address",
                    "internalType": "address"
                },
                {
                    "name": "to",
                    "type": "address",
                    "internalType": "address"
                },
                {
                    "name": "deadline",
                    "type": "uint256",
                    "internalType": "uint256"
                },
                {
                    "name": "v",
                    "type": "uint8",
                    "internalType": "uint8"
                },
                {
                    "name": "r",
                    "type": "bytes32",
                    "internalType": "bytes32"
                },
                {
                    "name": "s",
                    "type": "bytes32",
                    "internalType": "bytes32"
                }
            ],
            "outputs": [],
            "stateMutability": "payable"
        },
        {
            "type": "function",
            "name": "sellPermit",
            "inputs": [
                {
                    "name": "amountIn",
                    "type": "uint256",
                    "internalType": "uint256"
                },
                {
                    "name": "token",
                    "type": "address",
                    "internalType": "address"
                },
                {
                    "name": "from",
                    "type": "address",
                    "internalType": "address"
                },
                {
                    "name": "to",
                    "type": "address",
                    "internalType": "address"
                },
                {
                    "name": "deadline",
                    "type": "uint256",
                    "internalType": "uint256"
                },
                {
                    "name": "v",
                    "type": "uint8",
                    "internalType": "uint8"
                },
                {
                    "name": "r",
                    "type": "bytes32",
                    "internalType": "bytes32"
                },
                {
                    "name": "s",
                    "type": "bytes32",
                    "internalType": "bytes32"
                }
            ],
            "outputs": [],
            "stateMutability": "nonpayable"
        },
        {
            "type": "event",
            "name": "Buy",
            "inputs": [
                {
                    "name": "sender",
                    "type": "address",
                    "indexed": true,
                    "internalType": "address"
                },
                {
                    "name": "amountIn",
                    "type": "uint256",
                    "indexed": false,
                    "internalType": "uint256"
                },
                {
                    "name": "amountOut",
                    "type": "uint256",
                    "indexed": false,
                    "internalType": "uint256"
                },
                {
                    "name": "token",
                    "type": "address",
                    "indexed": false,
                    "internalType": "address"
                },
                {
                    "name": "curve",
                    "type": "address",
                    "indexed": false,
                    "internalType": "address"
                }
            ],
            "anonymous": false
        },
        {
            "type": "event",
            "name": "CreateCurve",
            "inputs": [
                {
                    "name": "sender",
                    "type": "address",
                    "indexed": true,
                    "internalType": "address"
                },
                {
                    "name": "curve",
                    "type": "address",
                    "indexed": true,
                    "internalType": "address"
                },
                {
                    "name": "token",
                    "type": "address",
                    "indexed": true,
                    "internalType": "address"
                },
                {
                    "name": "tokenURI",
                    "type": "string",
                    "indexed": false,
                    "internalType": "string"
                },
                {
                    "name": "name",
                    "type": "string",
                    "indexed": false,
                    "internalType": "string"
                },
                {
                    "name": "symbol",
                    "type": "string",
                    "indexed": false,
                    "internalType": "string"
                }
            ],
            "anonymous": false
        },
        {
            "type": "event",
            "name": "Sell",
            "inputs": [
                {
                    "name": "sender",
                    "type": "address",
                    "indexed": true,
                    "internalType": "address"
                },
                {
                    "name": "amountIn",
                    "type": "uint256",
                    "indexed": false,
                    "internalType": "uint256"
                },
                {
                    "name": "amountOut",
                    "type": "uint256",
                    "indexed": false,
                    "internalType": "uint256"
                },
                {
                    "name": "token",
                    "type": "address",
                    "indexed": false,
                    "internalType": "address"
                },
                {
                    "name": "curve",
                    "type": "address",
                    "indexed": false,
                    "internalType": "address"
                }
            ],
            "anonymous": false
        }
    ],
    "bytecode": {
        "object": "0x60c0346200016857601f6200312c38819003918201601f19168301916001600160401b038311848410176200016d57808492604094855283398101031262000168576200005a6020620000528362000183565b920162000183565b60809190915260a052600080546001600160a01b03191633179055604051612f93908162000199823960805181818161021401528181610626015281816108d701528181610bb301528181610db501528181610e9c015281816110830152818161133101528181611576015281816117a9015281816119a401528181611b8401528181611cda01528181611e8b01528181611f6a01528181612244015261273a015260a051818181601b0152818161031601528181610592015281816109b501528181610b2e01528181610e2901528181611156015281816114e8015281816116b50152818161180a01528181611a0601528181611c700152818161203c015281816121de01526128650152f35b600080fd5b634e487b7160e01b600052604160045260246000fd5b51906001600160a01b0382168203620001685756fe60806040526004361015610061575b361561001957600080fd5b7f00000000000000000000000000000000000000000000000000000000000000006001600160a01b0316330361004b57005b634e487b7160e01b600052600160045260246000fd5b6000803560e01c8063153c7a68146121a657806319a5049f14611f1c5780632a7f636714611dde5780633300bf2714611c2157806334d8f70714611ac25780633bd7042d1461196257806340f99f82146118cf578063526cc7a71461172657806352707d8c14611709578063571fd012146116e4578063577898da1461169f5780635c504fc0146114a857806361babc76146113d0578063663a313e14611298578063849f72ce14610ff557806392621fa214610de4578063c45a015514610d9f578063ca23b92d14610aeb578063e548cedd14610816578063ea945d6514610512578063f98355e4146104cf5763feb200301461015f575061000e565b346104cc57610187610170366123f0565b61017e959192939495612b34565b9042111561264b565b604051636eb1769f60e11b81523360048201523060248201526020916001600160a01b03848116928481604481875afa801561048d578990610498575b6101da9150886101d2612b8c565b91101561264b565b6101ed6101e5612b5b565b88151561264b565b6101f987303386612ed3565b6040516361f029fb60e01b81526004810184905284816024817f000000000000000000000000000000000000000000000000000000000000000086165afa94851561048d578995610455575b50508761026361025486612cc6565b61025d88612d42565b8b612c71565b60408051632fdde06960e11b81529198878516929182600481865afa801561044a578a976102d38d936102c36102bc8d958d6102d8998c908d9361040a575b5061ffff9160ff6102b4921690612a4d565b911690612a60565b809c612c64565b10156102cd612bf9565b9061264b565b612e1c565b803b156103f257604051636c197ff560e01b8152306004820152602481018990529082908290604490829084905af180156103e7576103f6575b50817f000000000000000000000000000000000000000000000000000000000000000016803b156103f257818091602460405180948193632e1a7d4d60e01b83528d60048401525af180156103e7576103cb575b50956103b16103b6936103a1866103c597957f2a08ba56b966d2c1c550fc9b2e982c7c95a91b3e6a90f6f64701312c8753e0319b5416612eb5565b6103ab8484612c64565b90612eb5565b612c64565b916040519384933397856126c9565b0390a280f35b6103d7909492946124cf565b6103e357918738610366565b8780fd5b6040513d84823e3d90fd5b5080fd5b6103ff906124cf565b6103e3578738610312565b60ff93506102b491509161043861ffff9360403d604011610443575b6104308183612515565b810190612a21565b9490925050916102a2565b503d610426565b6040513d86823e3d90fd5b9080929550813d8311610486575b61046d8183612515565b810103126103e35761047e9061267b565b923880610245565b503d610463565b6040513d8b823e3d90fd5b508481813d83116104c5575b6104ae8183612515565b810103126104c0576101da90516101c4565b600080fd5b503d6104a4565b80fd5b50346104cc5760203660031901126104cc5760606104eb6123da565b6104ff6104f782612cc6565b919092612d42565b9060405192835260208301526040820152f35b50346104cc576101403660031901126104cc576004356044356105336123c4565b608435916001600160a01b0380841684036104c05760a43581811681036104c05760c4359160e4359360ff851685036104c057889361057c610573612b34565b4283101561264b565b61058f610587612b5b565b8a151561264b565b827f000000000000000000000000000000000000000000000000000000000000000016956105bd838b6125b8565b90873b156107a15789926105f38893604051958694859463d505accf60e01b865261012435936101043593309060048901612bbd565b0381838a5af19081156107f35785916107fe575b50506040516361f029fb60e01b815286831660048201526020816024817f000000000000000000000000000000000000000000000000000000000000000087165afa9788156107f357899186996107b0575b5082916106928a9261068961066d85612cc6565b979094610684828261067e8a612d42565b99612aab565b6125b8565b9030908b612ed3565b873b156107a157604051632e1a7d4d60e01b815260048101849052918783602481838d5af19384156107a557888c948e96610781575b50916106df6106e59492896106fc99955416612eb5565b85612c71565b966102d36106f1612bf9565b6024358a101561264b565b8516803b1561077d5760405163cce7ec1360e01b81526001600160a01b039290921660048301526024820184905282908290604490829084905af180156103e757610765575b50506103c5600080516020612f3e833981519152936040519384933397856126c9565b61076e906124cf565b610779578438610742565b8480fd5b8280fd5b90929450610791919395506124cf565b6107a1579189918b9388386106c8565b8680fd5b6040513d8a823e3d90fd5b915097506020813d82116107eb575b816107cc60209383612515565b810103126107795761069297896107e3849361267b565b995091610659565b3d91506107bf565b6040513d87823e3d90fd5b610807906124cf565b610812578338610607565b8380fd5b50346104cc5760803660031901126104cc57600435610833612398565b61083b6123ae565b90610852610847612b34565b42606435101561264b565b604051636eb1769f60e11b81523360048201523060248201526001600160a01b03828116936020928381604481895afa80156107a5578890610abc575b61089d9150876101d2612b8c565b6108b06108a8612b5b565b87151561264b565b6108bc86303388612ed3565b6040516361f029fb60e01b81526004810186905283816024817f000000000000000000000000000000000000000000000000000000000000000087165afa9384156107a5578894610a84575b505061092561091684612cc6565b61091f86612d42565b89612c71565b94828416908860405192632fdde06960e11b8452604084600481845afa9283156103e757878b9184968596610a57575b50906109619291612e1c565b803b156103f257604051636c197ff560e01b8152306004820152602481018a90529082908290604490829084905af180156103e757610a3f575b505061ffff6102b460ff6109b0941689612a4d565b9187817f000000000000000000000000000000000000000000000000000000000000000016803b156103f257818091602460405180948193632e1a7d4d60e01b83528d60048401525af180156103e7576103cb5750956103b16103b6936103a1866103c597957f2a08ba56b966d2c1c550fc9b2e982c7c95a91b3e6a90f6f64701312c8753e0319b5416612eb5565b610a48906124cf565b610a5357883861099b565b8880fd5b61096193929750610a7891965060403d604011610443576104308183612515565b96909695909192610955565b9080929450813d8311610ab5575b610a9c8183612515565b810103126107a157610aad9061267b565b913880610908565b503d610a92565b508381813d8311610ae4575b610ad28183612515565b810103126104c05761089d905161088f565b503d610ac8565b50346104cc5780610afb3661242d565b90610b19610b109a9694939a99979899612b34565b4285101561264b565b610b246101e5612b5b565b6001600160a01b037f000000000000000000000000000000000000000000000000000000000000000081169a9094908b3b156103e35787938b93610b7f92604051978896879663d505accf60e01b8852309060048901612bbd565b0381838c5af190811561044a578491610d8b575b50506040516361f029fb60e01b81528582166004820152956020876024817f000000000000000000000000000000000000000000000000000000000000000086165afa96871561044a578497610d50575b50610c01610bf188612cc6565b90610bfb8a612d42565b88612c98565b97604051632fdde06960e11b8152604081600481878d165afa908115610d4557610c64918b610c449289908a9361040a575061ffff9160ff6102b4921690612a4d565b92610c50848c8c612aab565b610c5a848c6125b8565b11156102cd612c2b565b610c79610c71838b6125b8565b303384612ed3565b803b1561077957604051632e1a7d4d60e01b815260048101839052858160248183865af1918215610d4557868a928c94610d29575b50610cbf94866102d3925416612eb5565b8086163b1561077d5760405163cce7ec1360e01b81526001600160a01b039290921660048301526024820184905282908290604490829084908a165af180156103e7576107655750506103c5600080516020612f3e833981519152936040519384933397856126c9565b909250610d379193506124cf565b610779578789918638610cae565b6040513d88823e3d90fd5b9096506020813d8211610d83575b81610d6b60209383612515565b8101031261081257610d7c9061267b565b9538610be4565b3d9150610d5e565b610d94906124cf565b61077d578238610b93565b50346104cc57806003193601126104cc576040517f00000000000000000000000000000000000000000000000000000000000000006001600160a01b03168152602090f35b50346104cc5780610e06610df73661248e565b61017e97939691929597612b34565b604051636eb1769f60e11b81523360048201523060248201526001600160a01b037f0000000000000000000000000000000000000000000000000000000000000000811696909160209081816044818c5afa908115610d45578691610fc1575b50610e7f90610e75848c6125b8565b11156102cd612b8c565b6040516361f029fb60e01b815287841660048201529781896024817f000000000000000000000000000000000000000000000000000000000000000088165afa988915610d45578a92879a610f87575b5050889083610efc610ef4610ee385612cc6565b939096610684828261067e8a612d42565b303385612ed3565b813b156103e357604051632e1a7d4d60e01b81526004810186905293888560248183875af193841561048d57878a8f978f97610f65575b5091610f4d6106fc99610f5395936102d397955416612eb5565b87612c71565b98610f5c612bf9565b908a101561264b565b9150929550610f76919396506124cf565b6103e357928a928c94878a38610f33565b80929a508193503d8311610fba575b610fa08183612515565b8101031261077957610fb2899161267b565b973880610ecf565b503d610f96565b809650828092503d8311610fee575b610fda8183612515565b810103126104c057610e7f8a955190610e66565b503d610fd0565b50611010611002366123f0565b61017e959194929395612b34565b604051636eb1769f60e11b81523360048201523060248201526020939086906001600160a01b0390858216908781604481855afa801561044a5789918591611266575b5010158061125d575b611068906102cd612b8c565b6040516361f029fb60e01b81526004810182905287816024817f000000000000000000000000000000000000000000000000000000000000000087165afa97881561044a57849861121c575b50506111069787611112926110f26110cb83612cc6565b6110d485612d42565b6110df348d88612aab565b6110ec348a8c5416612eb5565b8b612c98565b9a8b936110fd612c2b565b9085111561264b565b6102d383303384612ed3565b808616803b1561077d57604051636c197ff560e01b8152306004820152602481018690529083908290604490829084905af19081156112115783916111fd575b50507f000000000000000000000000000000000000000000000000000000000000000016803b156103f257818091602460405180948193632e1a7d4d60e01b83528960048401525af180156103e7576111e5575b50507f2a08ba56b966d2c1c550fc9b2e982c7c95a91b3e6a90f6f64701312c8753e031936111d7836103c593612eb5565b6040519384933397856126c9565b6111ee906124cf565b6111f95785386111a6565b8580fd5b611206906124cf565b6103f2578138611152565b6040513d85823e3d90fd5b9080929850813d8311611256575b6112348183612515565b8101031261077d576111069761124c6111129261267b565b97918199506110b4565b503d61122a565b5087151561105c565b945050508683813d8311611291575b61127f8183612515565b810103126104c0578789935138611053565b503d611275565b50806112a33661242d565b906112b8610b109a959694939997989a612b34565b6001600160a01b03888116999094908a3b156107a15786938c936112f392604051978896879663d505accf60e01b8852309060048901612bbd565b0381838b5af19081156112115783916113bc575b50506113146101e5612c2b565b6040516361f029fb60e01b815260048101879052956020876024817f000000000000000000000000000000000000000000000000000000000000000086165afa968715611211578397611378575b506111069787611112926110f26110cb83612cc6565b9096506020813d82116113b4575b8161139360209383612515565b8101031261077d57611106976113ab6111129261267b565b97915097611362565b3d9150611386565b6113c5906124cf565b6103f2578138611307565b50346104cc5760403660031901126104cc576024906113ed6123da565b60206113f7612398565b6040516361f029fb60e01b81526001600160a01b039182166004820152949092859190829085165afa91821561149c57809261145e575b6080838361143b82612cc6565b9061144584612d42565b9260405194168452602084015260408301526060820152f35b9091506020833d8211611494575b8161147960209383612515565b810103126104cc575061148d60809261267b565b903861142e565b3d915061146c565b604051903d90823e3d90fd5b50346104cc57806114b83661242d565b6114cb610b109a9694939798999a612b34565b6114de6114d6612b5b565b8b151561264b565b6001600160a01b037f00000000000000000000000000000000000000000000000000000000000000008116979094906115178b8d6125b8565b92893b15610a5357889461154292604051978896879663d505accf60e01b8852309060048901612bbd565b038183895af190811561044a57849161168b575b50506040516361f029fb60e01b81528582166004820152956020876024817f000000000000000000000000000000000000000000000000000000000000000086165afa96871561044a578497611650575b506115b187612cc6565b91906115bc89612d42565b906115c8838c8c612aab565b6115dd6115d5848d6125b8565b30338b612ed3565b873b156107a157604051632e1a7d4d60e01b815260048101849052918783602481838d5af19384156107a557888c948e96611630575b50916106df61162a9492896106fc99955416612eb5565b96612e1c565b90929450611640919395506124cf565b6107a1579189918b938838611613565b9096506020813d8211611683575b8161166b60209383612515565b810103126108125761167c9061267b565b95386115a7565b3d915061165e565b611694906124cf565b61077d578238611556565b50346104cc57806003193601126104cc576040517f00000000000000000000000000000000000000000000000000000000000000006001600160a01b03168152602090f35b50346104cc5760206117016116f83661259a565b92919091612c98565b604051908152f35b50346104cc57602061170161171d3661259a565b92919091612c71565b50611742611733366123f0565b61017e95919495939293612b34565b61175a61174f82866125b8565b3410156102cd6125db565b61176d611765612b5b565b85151561264b565b611780611778612a80565b82151561264b565b6040516361f029fb60e01b81526001600160a01b038381166004830152909386916020866024817f000000000000000000000000000000000000000000000000000000000000000085165afa958615611211578396611894575b506117e486612cc6565b94906118076117f289612d42565b926117fe818c8c612aab565b84875416612eb5565b827f00000000000000000000000000000000000000000000000000000000000000001695863b156111f957604051630d0e30db60e41b81529086826004818e8c5af192831561188957878b938d9561186b575b50509061162a916106fc9585612c71565b9092945061187a9193506124cf565b6111f95789918991873861185a565b6040513d89823e3d90fd5b9095506020813d82116118c7575b816118af60209383612515565b8101031261077d576118c09061267b565b94386117da565b3d91506118a2565b5060c03660031901126104cc5767ffffffffffffffff906004358281116103f2576118fe903690600401612553565b906024358381116103f257611917903690600401612553565b906044359384116104cc5750611934611946933690600401612553565b9160a4359260843592606435926126f1565b604080516001600160a01b039384168152919092166020820152f35b5080611970610df73661248e565b61197d61174f86886125b8565b6040516361f029fb60e01b81526001600160a01b03858116600483015290956020876024817f000000000000000000000000000000000000000000000000000000000000000086165afa96871561044a578497611a87575b506119df87612cc6565b611a036119ee8a949394612d42565b926119fa818d8d612aab565b85885416612eb5565b837f000000000000000000000000000000000000000000000000000000000000000016803b156107a157604051630d0e30db60e41b81529187836004818f865af19384156107a557888c948e96611a69575b50506102d3916106fc96610f539287612c71565b90929450611a789195506124cf565b6107a15789918b938838611a55565b9096506020813d8211611aba575b81611aa260209383612515565b8101031261081257611ab39061267b565b95386119d5565b3d9150611a95565b50346104cc576101003660031901126104cc57600435611ae0612398565b611ae86123ae565b90611af16123c4565b60a4359260ff841684036104c0576001600160a01b038381169490919087863b156104cc5760405163d505accf60e01b815291819083908190611b459060e4359060c435906084358f308c60048901612bbd565b0381838b5af1918215611c14578892611bfd575b5050611b6791309087612ed3565b6040516361f029fb60e01b815260048101859052916020836024817f000000000000000000000000000000000000000000000000000000000000000086165afa928315611889578793611bc2575b5061092561091684612cc6565b9092506020813d8211611bf5575b81611bdd60209383612515565b810103126107a157611bee9061267b565b9138611bb5565b3d9150611bd0565b611c089192506124cf565b6107a157858738611b59565b50604051903d90823e3d90fd5b50346104cc57611c42611c33366123f0565b61017e95919594929394612b34565b611c4d611778612bf9565b604051636eb1769f60e11b81523360048201523060248201526001600160a01b037f0000000000000000000000000000000000000000000000000000000000000000811695602095889391929187816044818c5afa9081156107f3578591611daa575b50611cbe90826101d2612b8c565b6040516361f029fb60e01b8152868316600482015287816024817f000000000000000000000000000000000000000000000000000000000000000087165afa9788156107f3578598611d72575b5050611d19610bf188612cc6565b97604051632fdde06960e11b8152604081600481878d165afa908115610d4557611d67918b611d5c9289908a9361040a575061ffff9160ff6102b4921690612a4d565b92610c5a848c6125b8565b610c64828a8a612aab565b9080929850813d8311611da3575b611d8a8183612515565b8101031261081257611d9b9061267b565b953880611d0b565b503d611d80565b809550888092503d8311611dd7575b611dc38183612515565b810103126104c057611cbe89945190611cb0565b503d611db9565b50346104cc5780611dee3661242d565b94929596979890611e09611e00612b34565b4289101561264b565b611e146114d6612b5b565b6001600160a01b039688881696873b1561081257611e4c8c918594604051978895869563d505accf60e01b8752308c60048901612bbd565b038183895af1918215611c14578992611f05575b5050611e6e91309085612ed3565b6040516361f029fb60e01b815260048101839052926020846024817f000000000000000000000000000000000000000000000000000000000000000085165afa9384156107a5578894611eca575b508761026361025486612cc6565b9093506020813d8211611efd575b81611ee560209383612515565b810103126103e357611ef69061267b565b9238611ebc565b3d9150611ed8565b611f109192506124cf565b6103e357868838611e60565b50611f29611002366123f0565b611f3d611f346125db565b8534101561264b565b6040516361f029fb60e01b81526001600160a01b03838116600483015290938691602090869060249082907f0000000000000000000000000000000000000000000000000000000000000000165afa9485156103e757829561216b575b50611fb7611fa786612cc6565b90611fb188612d42565b86612c98565b60408051632fdde06960e11b8152919790826004816001600160a01b038b165afa801561044a5761200361202d91612033948790889261213e575b506102b460ff61ffff92168d612a4d565b85546120199082906001600160a01b0316612eb5565b61202783610c5a838d6125b8565b896125b8565b90612c64565b8061212e575b507f00000000000000000000000000000000000000000000000000000000000000006001600160a01b0316803b1561077d57604051630d0e30db60e41b815283816004818b865af190811561044a578488918a93612114575b505061209d92612e1c565b6001600160a01b0385163b156103f25760405163cce7ec1360e01b81526001600160a01b03909116600482015260248101839052818180604481010381836001600160a01b038a165af180156103e7576107655750506103c5600080516020612f3e833981519152936040519384933397856126c9565b90925061212191506124cf565b61077d5786868438612092565b6121389033612eb5565b38612039565b60ff925061ffff91506121626102b49160403d604011610443576104308183612515565b93509150611ff2565b9094506020813d821161219e575b8161218660209383612515565b810103126103f2576121979061267b565b9338611f9a565b3d9150612179565b50346104cc576121b8610170366123f0565b604051636eb1769f60e11b81523360048201523060248201526020936001600160a01b037f0000000000000000000000000000000000000000000000000000000000000000811693929091908681604481885afa801561048d578990612369575b6122289150610e75838a6125b8565b6040516361f029fb60e01b8152858316600482015286816024817f000000000000000000000000000000000000000000000000000000000000000087165afa96871561048d578997612331575b505061228086612cc6565b9161228a88612d42565b90612296818b8b612aab565b6122ab6122a3828c6125b8565b30338a612ed3565b863b1561232d57604051632e1a7d4d60e01b8152600481018290528b81602481838c5af18015612322576122f7575b5061162a85946106fc948c946106df8f9a99958e968c5416612eb5565b89919695946106fc948c946106df9e61231261162a956124cf565b9e509450945094959691506122da565b6040513d8e823e3d90fd5b8a80fd5b9080929750813d8311612362575b6123498183612515565b810103126103e35761235a9061267b565b943880612275565b503d61233f565b508681813d8311612391575b61237f8183612515565b81010312610a53576122289051612219565b503d612375565b602435906001600160a01b03821682036104c057565b604435906001600160a01b03821682036104c057565b606435906001600160a01b03821682036104c057565b600435906001600160a01b03821682036104c057565b60a09060031901126104c05760043590602435906001600160a01b039060443582811681036104c0579160643590811681036104c0579060843590565b6101209060031901126104c05760043590602435906001600160a01b0360443581811681036104c0579160643582811681036104c0579160843590811681036104c0579060a4359060c43560ff811681036104c0579060e435906101043590565b60c09060031901126104c0576004359060243590604435906001600160a01b039060643582811681036104c0579160843590811681036104c0579060a43590565b67ffffffffffffffff81116124e357604052565b634e487b7160e01b600052604160045260246000fd5b6040810190811067ffffffffffffffff8211176124e357604052565b90601f8019910116810190811067ffffffffffffffff8211176124e357604052565b67ffffffffffffffff81116124e357601f01601f191660200190565b81601f820112156104c05780359061256a82612537565b926125786040519485612515565b828452602083830101116104c057816000926020809301838601378301015290565b60809060031901126104c05760043590602435906044359060643590565b919082018092116125c557565b634e487b7160e01b600052601160045260246000fd5b604051906125e8826124f9565b601482527311549497d253959053125117d4d1539117d3905160621b6020830152565b919082519283825260005b848110612637575050826000602080949584010152601f8019910116010190565b602081830181015184830182015201612616565b156126535750565b60405162461bcd60e51b81526020600482015290819061267790602483019061260b565b0390fd5b51906001600160a01b03821682036104c057565b916126b8906126aa6126c6959360608652606086019061260b565b90848203602086015261260b565b91604081840391015261260b565b90565b90815260208101919091526001600160a01b0391821660408201529116606082015260800190565b94959391956127048161068485876125b8565b9261271c6000946127136125db565b9034101561264b565b6040805163477e2a4d60e11b815290936001600160a01b03936020927f0000000000000000000000000000000000000000000000000000000000000000861691908481600481865afa908115612a1757928c89938f938c98979689916129d5575b50916127cb6127e799926127c28995895190612798826124f9565b60168252754552525f494e56414c49445f4445504c4f595f46454560501b8d83015283101561264b565b8c845416612eb5565b8551632e942b0560e11b8152988995869485936004850161268f565b03925af19283156129cb5787928894612986575b50508299829b7f64a3a8ad4a1980f55371b367140c21bedb2f9228c8064e7fe4c72a8c37f70c058851806128388a8916968b89169633968461268f565b0390a48615801561297e575b6129735750508061285961286292878b612aab565b82855416612eb5565b807f00000000000000000000000000000000000000000000000000000000000000001692833b156104cc578251630d0e30db60e41b8152818160048189895af180156129695761295a575b50906128ca858961162a6128c082612cc6565b906106df84612d42565b8716803b156103f257825163cce7ec1360e01b8152336004820152602481018590529082908290604490829084905af1801561295057918793918993612933575b5050600080516020612f3e833981519152939161292e91519384933397856126c9565b0390a2565b819350612942919294506124cf565b6104cc57859181889261290b565b83513d84823e3d90fd5b612963906124cf565b386128ad565b84513d84823e3d90fd5b985096505050505050565b508215612844565b91935091508582813d83116129c4575b6129a08183612515565b810103126107a1576129bc906129b58361267b565b920161267b565b9138806127fb565b503d612996565b86513d89823e3d90fd5b945050935050929380955081813d8311612a10575b6129f48183612515565b81010312610a5357518894939288928e928e91906127cb61277d565b503d6129ea565b88513d8b823e3d90fd5b91908260409103126104c057815160ff811681036104c05760209092015161ffff811681036104c05790565b818102929181159184041417156125c557565b8115612a6a570490565b634e487b7160e01b600052601260045260246000fd5b60405190612a8d826124f9565b600f82526e4552525f494e56414c49445f46454560881b6020830152565b60408051632fdde06960e11b815292939291829060049082906001600160a01b03165afa8015612b2857612b0293612af8926000908193612b04575061ffff9160ff6102b4921690612a4d565b11156102cd612a80565b565b60ff93506102b491509161043861ffff9360403d8111610443576104308183612515565b6040513d6000823e3d90fd5b60405190612b41826124f9565b600b82526a11549497d156141254915160aa1b6020830152565b60405190612b68826124f9565b601582527422a9292fa4a72b20a624a22fa0a6a7aaa72a2fa4a760591b6020830152565b60405190612b99826124f9565b60158252744552525f494e56414c49445f414c4c4f57414e434560581b6020830152565b9360ff929897969360c0969260e087019a60018060a01b0380921688521660208701526040860152606085015216608083015260a08201520152565b60405190612c06826124f9565b601682527511549497d253959053125117d05353d5539517d3d55560521b6020830152565b60405190612c38826124f9565b601982527f4552525f494e56414c49445f414d4f554e545f494e5f4d4158000000000000006020830152565b919082039182116125c557565b90612c8361202d92612c8995946125b8565b90612a60565b60001981019081116125c55790565b90612c836103b192612cb8956103b1612caf612bf9565b8284111561264b565b600181018091116125c55790565b60408051631fe3d86160e21b815290918290829060049082906001600160a01b03165afa908115612d37576000928392612d01575b50509091565b9080939250813d8311612d30575b612d198183612515565b810103126104cc5750602081519101513880612cfb565b503d612d0f565b82513d6000823e3d90fd5b604051630771cf3d60e51b815290602090829060049082906001600160a01b03165afa908115612b2857600091612d77575090565b906020823d8211612d9d575b81612d9060209383612515565b810103126104cc57505190565b3d9150612d83565b3d15612dd0573d90612db682612537565b91612dc46040519384612515565b82523d6000602084013e565b606090565b908160209103126104c0575180151581036104c05790565b60405190612dfa826124f9565b601382527211549497d514905394d1915497d19052531151606a1b6020830152565b60405163a9059cbb60e01b602082019081526001600160a01b03939093166024820152604480820194909452928352612b02926000928392918390612e62606482612515565b51926001600160a01b03165af1612e77612da5565b81612e86575b506102cd612ded565b8051801592508215612e9b575b505038612e7d565b612eae9250602080918301019101612dd5565b3880612e93565b60008080612b0294819460018060a01b03166108fcf1612e7d612da5565b6040516323b872dd60e01b602082019081526001600160a01b039384166024830152938316604482015260648082019590955293845260a0840193919267ffffffffffffffff8511838610176124e357600080948194612b02976040525193165af1612e77612da556fee5bebe02053c3994156a913e08502f898d34f7adeb369c4a2edd8d9e6ed1bf76a264697066735822122090c33b0ceda827aa8c06146f0dd9e8a6550f16a4bf333bf8c058a1611f746f3364736f6c63430008140033",
        "linkReferences": {}
    },
    "methodIdentifiers": {
        "WNAD()": "577898da",
        "buy(uint256,uint256,address,address,uint256)": "526cc7a7",
        "buyAmountOutMin(uint256,uint256,uint256,address,address,uint256)": "3bd7042d",
        "buyExactAmountOut(uint256,uint256,address,address,uint256)": "19a5049f",
        "buyExactAmountOutWNad(uint256,uint256,address,address,uint256)": "3300bf27",
        "buyExactAmountOutWNadPermit(uint256,uint256,address,address,address,uint256,uint8,bytes32,bytes32)": "ca23b92d",
        "buyWNad(uint256,uint256,address,address,uint256)": "153c7a68",
        "buyWNadAmountOutMin(uint256,uint256,uint256,address,address,uint256)": "92621fa2",
        "buyWNadAmountOutMinPermit(uint256,uint256,uint256,address,address,address,uint256,uint8,bytes32,bytes32)": "ea945d65",
        "buyWNadWithPermit(uint256,uint256,address,address,address,uint256,uint8,bytes32,bytes32)": "5c504fc0",
        "createCurve(string,string,string,uint256,uint256,uint256)": "40f99f82",
        "factory()": "c45a0155",
        "getAmountIn(uint256,uint256,uint256,uint256)": "571fd012",
        "getAmountOut(uint256,uint256,uint256,uint256)": "52707d8c",
        "getCurveData(address)": "f98355e4",
        "getCurveData(address,address)": "61babc76",
        "sell(uint256,address,address,uint256)": "e548cedd",
        "sellAmountOutMin(uint256,uint256,address,address,uint256)": "feb20030",
        "sellAmountOutMinWithPermit(uint256,uint256,address,address,address,uint256,uint8,bytes32,bytes32)": "2a7f6367",
        "sellExactAmountOut(uint256,uint256,address,address,uint256)": "849f72ce",
        "sellExactAmountOutwithPermit(uint256,uint256,address,address,address,uint256,uint8,bytes32,bytes32)": "663a313e",
        "sellPermit(uint256,address,address,address,uint256,uint8,bytes32,bytes32)": "34d8f707"
    },
    "id": 35
}